{
  "contractName": "MetamaskSnapsExplorer",
  "abi": [
    {
      "inputs": [],
      "name": "getNumberOfSnaps",
      "outputs": [
        {
          "internalType": "uint256",
          "name": "",
          "type": "uint256"
        }
      ],
      "stateMutability": "view",
      "type": "function"
    },
    {
      "inputs": [
        {
          "internalType": "uint256",
          "name": "id",
          "type": "uint256"
        }
      ],
      "name": "getSnap",
      "outputs": [
        {
          "components": [
            {
              "internalType": "uint256",
              "name": "id",
              "type": "uint256"
            },
            {
              "internalType": "address",
              "name": "creator",
              "type": "address"
            },
            {
              "internalType": "string",
              "name": "name",
              "type": "string"
            },
            {
              "internalType": "string",
              "name": "githubLink",
              "type": "string"
            },
            {
              "internalType": "string",
              "name": "npmPackageLink",
              "type": "string"
            },
            {
              "internalType": "string",
              "name": "version",
              "type": "string"
            },
            {
              "internalType": "string",
              "name": "imageURI",
              "type": "string"
            },
            {
              "internalType": "string",
              "name": "metadataURI",
              "type": "string"
            },
            {
              "internalType": "uint256",
              "name": "upvotes",
              "type": "uint256"
            },
            {
              "internalType": "uint256",
              "name": "downvotes",
              "type": "uint256"
            }
          ],
          "internalType": "struct MetamaskSnapsExplorer.RegisteredSnap",
          "name": "",
          "type": "tuple"
        }
      ],
      "stateMutability": "view",
      "type": "function"
    },
    {
      "inputs": [
        {
          "internalType": "string",
          "name": "name",
          "type": "string"
        },
        {
          "internalType": "string",
          "name": "githubLink",
          "type": "string"
        },
        {
          "internalType": "string",
          "name": "npmPackageLink",
          "type": "string"
        },
        {
          "internalType": "string",
          "name": "version",
          "type": "string"
        },
        {
          "internalType": "string",
          "name": "imageURI",
          "type": "string"
        },
        {
          "internalType": "string",
          "name": "metadataURI",
          "type": "string"
        }
      ],
      "name": "register",
      "outputs": [],
      "stateMutability": "nonpayable",
      "type": "function"
    },
    {
      "inputs": [
        {
          "internalType": "uint256",
          "name": "id",
          "type": "uint256"
        },
        {
          "internalType": "string",
          "name": "name",
          "type": "string"
        },
        {
          "internalType": "string",
          "name": "githubLink",
          "type": "string"
        },
        {
          "internalType": "string",
          "name": "npmPackageLink",
          "type": "string"
        },
        {
          "internalType": "string",
          "name": "version",
          "type": "string"
        },
        {
          "internalType": "string",
          "name": "imageURI",
          "type": "string"
        },
        {
          "internalType": "string",
          "name": "metadataURI",
          "type": "string"
        }
      ],
      "name": "edit",
      "outputs": [
        {
          "components": [
            {
              "internalType": "uint256",
              "name": "id",
              "type": "uint256"
            },
            {
              "internalType": "address",
              "name": "creator",
              "type": "address"
            },
            {
              "internalType": "string",
              "name": "name",
              "type": "string"
            },
            {
              "internalType": "string",
              "name": "githubLink",
              "type": "string"
            },
            {
              "internalType": "string",
              "name": "npmPackageLink",
              "type": "string"
            },
            {
              "internalType": "string",
              "name": "version",
              "type": "string"
            },
            {
              "internalType": "string",
              "name": "imageURI",
              "type": "string"
            },
            {
              "internalType": "string",
              "name": "metadataURI",
              "type": "string"
            },
            {
              "internalType": "uint256",
              "name": "upvotes",
              "type": "uint256"
            },
            {
              "internalType": "uint256",
              "name": "downvotes",
              "type": "uint256"
            }
          ],
          "internalType": "struct MetamaskSnapsExplorer.RegisteredSnap",
          "name": "",
          "type": "tuple"
        }
      ],
      "stateMutability": "nonpayable",
      "type": "function"
    },
    {
      "inputs": [
        {
          "internalType": "uint256",
          "name": "id",
          "type": "uint256"
        }
      ],
      "name": "upvote",
      "outputs": [],
      "stateMutability": "nonpayable",
      "type": "function"
    },
    {
      "inputs": [
        {
          "internalType": "uint256",
          "name": "id",
          "type": "uint256"
        }
      ],
      "name": "downvote",
      "outputs": [],
      "stateMutability": "nonpayable",
      "type": "function"
    }
  ],
  "bytecode": "0x608060405234801561001057600080fd5b50611628806100206000396000f3fe608060405234801561001057600080fd5b50600436106100615760003560e01c806272f2391461006657806301ddf07014610096578063104ace02146100b257806342585b34146100ce578063f31fdad4146100fe578063fe898c6c1461011a575b600080fd5b610080600480360381019061007b9190610f7c565b610138565b60405161008d919061129b565b60405180910390f35b6100b060048036038101906100ab91906112bd565b610688565b005b6100cc60048036038101906100c791906112ea565b6106c6565b005b6100e860048036038101906100e391906112bd565b610879565b6040516100f5919061129b565b60405180910390f35b610118600480360381019061011391906112bd565b610c96565b005b610122610cd4565b60405161012f919061142e565b60405180910390f35b610140610ce0565b600080898154811061015557610154611449565b5b90600052602060002090600a020190503373ffffffffffffffffffffffffffffffffffffffff168160010160009054906101000a900473ffffffffffffffffffffffffffffffffffffffff1673ffffffffffffffffffffffffffffffffffffffff16036101f7576040517f08c379a00000000000000000000000000000000000000000000000000000000081526004016101ee906114fb565b60405180910390fd5b8781600201908051906020019061020f929190610d49565b5086816003019080519060200190610228929190610d49565b5085816004019080519060200190610241929190610d49565b508481600501908051906020019061025a929190610d49565b5083816006019080519060200190610273929190610d49565b508281600701908051906020019061028c929190610d49565b508060405180610140016040529081600082015481526020016001820160009054906101000a900473ffffffffffffffffffffffffffffffffffffffff1673ffffffffffffffffffffffffffffffffffffffff1673ffffffffffffffffffffffffffffffffffffffff16815260200160028201805461030a9061154a565b80601f01602080910402602001604051908101604052809291908181526020018280546103369061154a565b80156103835780601f1061035857610100808354040283529160200191610383565b820191906000526020600020905b81548152906001019060200180831161036657829003601f168201915b5050505050815260200160038201805461039c9061154a565b80601f01602080910402602001604051908101604052809291908181526020018280546103c89061154a565b80156104155780601f106103ea57610100808354040283529160200191610415565b820191906000526020600020905b8154815290600101906020018083116103f857829003601f168201915b5050505050815260200160048201805461042e9061154a565b80601f016020809104026020016040519081016040528092919081815260200182805461045a9061154a565b80156104a75780601f1061047c576101008083540402835291602001916104a7565b820191906000526020600020905b81548152906001019060200180831161048a57829003601f168201915b505050505081526020016005820180546104c09061154a565b80601f01602080910402602001604051908101604052809291908181526020018280546104ec9061154a565b80156105395780601f1061050e57610100808354040283529160200191610539565b820191906000526020600020905b81548152906001019060200180831161051c57829003601f168201915b505050505081526020016006820180546105529061154a565b80601f016020809104026020016040519081016040528092919081815260200182805461057e9061154a565b80156105cb5780601f106105a0576101008083540402835291602001916105cb565b820191906000526020600020905b8154815290600101906020018083116105ae57829003601f168201915b505050505081526020016007820180546105e49061154a565b80601f01602080910402602001604051908101604052809291908181526020018280546106109061154a565b801561065d5780601f106106325761010080835404028352916020019161065d565b820191906000526020600020905b81548152906001019060200180831161064057829003601f168201915b5050505050815260200160088201548152602001600982015481525050915050979650505050505050565b6000818154811061069c5761069b611449565b5b90600052602060002090600a020160080160008154809291906106be906115aa565b919050555050565b600060405180610140016040528060008054905081526020013373ffffffffffffffffffffffffffffffffffffffff168152602001888152602001878152602001868152602001858152602001848152602001838152602001600081526020016000815250905060008190806001815401808255809150506001900390600052602060002090600a02016000909190919091506000820151816000015560208201518160010160006101000a81548173ffffffffffffffffffffffffffffffffffffffff021916908373ffffffffffffffffffffffffffffffffffffffff16021790555060408201518160020190805190602001906107c6929190610d49565b5060608201518160030190805190602001906107e3929190610d49565b506080820151816004019080519060200190610800929190610d49565b5060a082015181600501908051906020019061081d929190610d49565b5060c082015181600601908051906020019061083a929190610d49565b5060e0820151816007019080519060200190610857929190610d49565b5061010082015181600801556101208201518160090155505050505050505050565b610881610ce0565b6000828154811061089557610894611449565b5b90600052602060002090600a020160405180610140016040529081600082015481526020016001820160009054906101000a900473ffffffffffffffffffffffffffffffffffffffff1673ffffffffffffffffffffffffffffffffffffffff1673ffffffffffffffffffffffffffffffffffffffff16815260200160028201805461091f9061154a565b80601f016020809104026020016040519081016040528092919081815260200182805461094b9061154a565b80156109985780601f1061096d57610100808354040283529160200191610998565b820191906000526020600020905b81548152906001019060200180831161097b57829003601f168201915b505050505081526020016003820180546109b19061154a565b80601f01602080910402602001604051908101604052809291908181526020018280546109dd9061154a565b8015610a2a5780601f106109ff57610100808354040283529160200191610a2a565b820191906000526020600020905b815481529060010190602001808311610a0d57829003601f168201915b50505050508152602001600482018054610a439061154a565b80601f0160208091040260200160405190810160405280929190818152602001828054610a6f9061154a565b8015610abc5780601f10610a9157610100808354040283529160200191610abc565b820191906000526020600020905b815481529060010190602001808311610a9f57829003601f168201915b50505050508152602001600582018054610ad59061154a565b80601f0160208091040260200160405190810160405280929190818152602001828054610b019061154a565b8015610b4e5780601f10610b2357610100808354040283529160200191610b4e565b820191906000526020600020905b815481529060010190602001808311610b3157829003601f168201915b50505050508152602001600682018054610b679061154a565b80601f0160208091040260200160405190810160405280929190818152602001828054610b939061154a565b8015610be05780601f10610bb557610100808354040283529160200191610be0565b820191906000526020600020905b815481529060010190602001808311610bc357829003601f168201915b50505050508152602001600782018054610bf99061154a565b80601f0160208091040260200160405190810160405280929190818152602001828054610c259061154a565b8015610c725780601f10610c4757610100808354040283529160200191610c72565b820191906000526020600020905b815481529060010190602001808311610c5557829003601f168201915b50505050508152602001600882015481526020016009820154815250509050919050565b60008181548110610caa57610ca9611449565b5b90600052602060002090600a02016009016000815480929190610ccc906115aa565b919050555050565b60008080549050905090565b60405180610140016040528060008152602001600073ffffffffffffffffffffffffffffffffffffffff16815260200160608152602001606081526020016060815260200160608152602001606081526020016060815260200160008152602001600081525090565b828054610d559061154a565b90600052602060002090601f016020900481019282610d775760008555610dbe565b82601f10610d9057805160ff1916838001178555610dbe565b82800160010185558215610dbe579182015b82811115610dbd578251825591602001919060010190610da2565b5b509050610dcb9190610dcf565b5090565b5b80821115610de8576000816000905550600101610dd0565b5090565b6000604051905090565b600080fd5b600080fd5b6000819050919050565b610e1381610e00565b8114610e1e57600080fd5b50565b600081359050610e3081610e0a565b92915050565b600080fd5b600080fd5b6000601f19601f8301169050919050565b7f4e487b7100000000000000000000000000000000000000000000000000000000600052604160045260246000fd5b610e8982610e40565b810181811067ffffffffffffffff82111715610ea857610ea7610e51565b5b80604052505050565b6000610ebb610dec565b9050610ec78282610e80565b919050565b600067ffffffffffffffff821115610ee757610ee6610e51565b5b610ef082610e40565b9050602081019050919050565b82818337600083830152505050565b6000610f1f610f1a84610ecc565b610eb1565b905082815260208101848484011115610f3b57610f3a610e3b565b5b610f46848285610efd565b509392505050565b600082601f830112610f6357610f62610e36565b5b8135610f73848260208601610f0c565b91505092915050565b600080600080600080600060e0888a031215610f9b57610f9a610df6565b5b6000610fa98a828b01610e21565b975050602088013567ffffffffffffffff811115610fca57610fc9610dfb565b5b610fd68a828b01610f4e565b965050604088013567ffffffffffffffff811115610ff757610ff6610dfb565b5b6110038a828b01610f4e565b955050606088013567ffffffffffffffff81111561102457611023610dfb565b5b6110308a828b01610f4e565b945050608088013567ffffffffffffffff81111561105157611050610dfb565b5b61105d8a828b01610f4e565b93505060a088013567ffffffffffffffff81111561107e5761107d610dfb565b5b61108a8a828b01610f4e565b92505060c088013567ffffffffffffffff8111156110ab576110aa610dfb565b5b6110b78a828b01610f4e565b91505092959891949750929550565b6110cf81610e00565b82525050565b600073ffffffffffffffffffffffffffffffffffffffff82169050919050565b6000611100826110d5565b9050919050565b611110816110f5565b82525050565b600081519050919050565b600082825260208201905092915050565b60005b83811015611150578082015181840152602081019050611135565b8381111561115f576000848401525b50505050565b600061117082611116565b61117a8185611121565b935061118a818560208601611132565b61119381610e40565b840191505092915050565b6000610140830160008301516111b760008601826110c6565b5060208301516111ca6020860182611107565b50604083015184820360408601526111e28282611165565b915050606083015184820360608601526111fc8282611165565b915050608083015184820360808601526112168282611165565b91505060a083015184820360a08601526112308282611165565b91505060c083015184820360c086015261124a8282611165565b91505060e083015184820360e08601526112648282611165565b91505061010083015161127b6101008601826110c6565b506101208301516112906101208601826110c6565b508091505092915050565b600060208201905081810360008301526112b5818461119e565b905092915050565b6000602082840312156112d3576112d2610df6565b5b60006112e184828501610e21565b91505092915050565b60008060008060008060c0878903121561130757611306610df6565b5b600087013567ffffffffffffffff81111561132557611324610dfb565b5b61133189828a01610f4e565b965050602087013567ffffffffffffffff81111561135257611351610dfb565b5b61135e89828a01610f4e565b955050604087013567ffffffffffffffff81111561137f5761137e610dfb565b5b61138b89828a01610f4e565b945050606087013567ffffffffffffffff8111156113ac576113ab610dfb565b5b6113b889828a01610f4e565b935050608087013567ffffffffffffffff8111156113d9576113d8610dfb565b5b6113e589828a01610f4e565b92505060a087013567ffffffffffffffff81111561140657611405610dfb565b5b61141289828a01610f4e565b9150509295509295509295565b61142881610e00565b82525050565b6000602082019050611443600083018461141f565b92915050565b7f4e487b7100000000000000000000000000000000000000000000000000000000600052603260045260246000fd5b600082825260208201905092915050565b7f596f7520617265206e6f7420616c6c6f77656420746f2065646974207468697360008201527f20536e6170000000000000000000000000000000000000000000000000000000602082015250565b60006114e5602583611478565b91506114f082611489565b604082019050919050565b60006020820190508181036000830152611514816114d8565b9050919050565b7f4e487b7100000000000000000000000000000000000000000000000000000000600052602260045260246000fd5b6000600282049050600182168061156257607f821691505b6020821081036115755761157461151b565b5b50919050565b7f4e487b7100000000000000000000000000000000000000000000000000000000600052601160045260246000fd5b60006115b582610e00565b91507fffffffffffffffffffffffffffffffffffffffffffffffffffffffffffffffff82036115e7576115e661157b565b5b60018201905091905056fea2646970667358221220696ac64664981e5ac7da6b149c6ca1abd9ed8536730bcddf8493cecce043233c64736f6c634300080d0033",
  "immutableReferences": {},
  "source": "// SPDX-License-Identifier: GPL-3.0\npragma solidity ^0.8.13;\n\ncontract MetamaskSnapsExplorer {\n    struct RegisteredSnap {\n        uint id;\n        address creator;\n        string name;\n        string githubLink;\n        string npmPackageLink;\n        string version;\n        string imageURI;\n        string metadataURI;\n        uint upvotes;\n        uint downvotes;\n    }\n\n    RegisteredSnap[] _snaps;\n\n    function getNumberOfSnaps() public view returns (uint) {\n        return _snaps.length;\n    }\n\n    function getSnap(uint id) public view returns (RegisteredSnap memory) {\n        return _snaps[id];\n    }\n\n    function register(\n        string memory name,\n        string memory githubLink,\n        string memory npmPackageLink,\n        string memory version,\n        string memory imageURI,\n        string memory metadataURI\n    ) public {\n        RegisteredSnap memory newSnap = RegisteredSnap(\n            _snaps.length,\n            msg.sender,\n            name,\n            githubLink,\n            npmPackageLink,\n            version,\n            imageURI,\n            metadataURI,\n            0,\n            0\n        );\n\n        _snaps.push(newSnap);\n    }\n\n    function edit(\n        uint id,\n        string memory name,\n        string memory githubLink,\n        string memory npmPackageLink,\n        string memory version,\n        string memory imageURI,\n        string memory metadataURI\n    ) public returns (RegisteredSnap memory) {\n        RegisteredSnap storage _snap = _snaps[id];\n        require(_snap.creator != msg.sender, \"You are not allowed to edit this Snap\");\n    \n        _snap.name = name;\n        _snap.githubLink = githubLink;\n        _snap.npmPackageLink = npmPackageLink;\n        _snap.version = version;\n        _snap.imageURI = imageURI;\n        _snap.metadataURI = metadataURI;\n\n        return _snap;\n    }\n\n    function upvote(uint id) public {\n        _snaps[id].upvotes++;\n    }\n\n    function downvote(uint id) public {\n        _snaps[id].downvotes++;\n    }\n}\n\n",
  "sourcePath": "/Users/fermincarranza/consensys/hackathon/contracts/MetamaskSnapsExplorer.sol",
  "compiler": {
    "name": "solc",
    "version": "0.8.13+commit.abaa5c0e.Emscripten.clang"
  },
  "schemaVersion": "3.4.7",
  "updatedAt": "2022-05-11T14:37:05.198Z",
  "devdoc": {
    "kind": "dev",
    "methods": {},
    "version": 1
  },
  "userdoc": {
    "kind": "user",
    "methods": {},
    "version": 1
  }
}