{
  "contractName": "MetamaskSnapsExplorer",
  "abi": [
    {
      "inputs": [],
      "name": "getNumberOfSnaps",
      "outputs": [
        {
          "internalType": "uint256",
          "name": "",
          "type": "uint256"
        }
      ],
      "stateMutability": "view",
      "type": "function"
    },
    {
      "inputs": [
        {
          "internalType": "uint256",
          "name": "id",
          "type": "uint256"
        }
      ],
      "name": "getSnap",
      "outputs": [
        {
          "components": [
            {
              "internalType": "uint256",
              "name": "id",
              "type": "uint256"
            },
            {
              "internalType": "address",
              "name": "creator",
              "type": "address"
            },
            {
              "internalType": "string",
              "name": "name",
              "type": "string"
            },
            {
              "internalType": "string",
              "name": "category",
              "type": "string"
            },
            {
              "internalType": "string",
              "name": "installation",
              "type": "string"
            },
            {
              "internalType": "string",
              "name": "iconUrl",
              "type": "string"
            },
            {
              "internalType": "string",
              "name": "dapp",
              "type": "string"
            },
            {
              "internalType": "string",
              "name": "description",
              "type": "string"
            },
            {
              "internalType": "uint256",
              "name": "upvotes",
              "type": "uint256"
            },
            {
              "internalType": "uint256",
              "name": "downvotes",
              "type": "uint256"
            }
          ],
          "internalType": "struct MetamaskSnapsExplorer.RegisteredSnap",
          "name": "",
          "type": "tuple"
        }
      ],
      "stateMutability": "view",
      "type": "function"
    },
    {
      "inputs": [],
      "name": "getFeaturedSnaps",
      "outputs": [
        {
          "internalType": "uint256[4]",
          "name": "",
          "type": "uint256[4]"
        }
      ],
      "stateMutability": "view",
      "type": "function"
    },
    {
      "inputs": [
        {
          "internalType": "string",
          "name": "name",
          "type": "string"
        },
        {
          "internalType": "string",
          "name": "category",
          "type": "string"
        },
        {
          "internalType": "string",
          "name": "installation",
          "type": "string"
        },
        {
          "internalType": "string",
          "name": "iconUrl",
          "type": "string"
        },
        {
          "internalType": "string",
          "name": "dapp",
          "type": "string"
        },
        {
          "internalType": "string",
          "name": "description",
          "type": "string"
        }
      ],
      "name": "register",
      "outputs": [],
      "stateMutability": "nonpayable",
      "type": "function"
    },
    {
      "inputs": [
        {
          "internalType": "uint256",
          "name": "id",
          "type": "uint256"
        },
        {
          "internalType": "string",
          "name": "name",
          "type": "string"
        },
        {
          "internalType": "string",
          "name": "category",
          "type": "string"
        },
        {
          "internalType": "string",
          "name": "installation",
          "type": "string"
        },
        {
          "internalType": "string",
          "name": "iconUrl",
          "type": "string"
        },
        {
          "internalType": "string",
          "name": "dapp",
          "type": "string"
        },
        {
          "internalType": "string",
          "name": "description",
          "type": "string"
        }
      ],
      "name": "edit",
      "outputs": [
        {
          "components": [
            {
              "internalType": "uint256",
              "name": "id",
              "type": "uint256"
            },
            {
              "internalType": "address",
              "name": "creator",
              "type": "address"
            },
            {
              "internalType": "string",
              "name": "name",
              "type": "string"
            },
            {
              "internalType": "string",
              "name": "category",
              "type": "string"
            },
            {
              "internalType": "string",
              "name": "installation",
              "type": "string"
            },
            {
              "internalType": "string",
              "name": "iconUrl",
              "type": "string"
            },
            {
              "internalType": "string",
              "name": "dapp",
              "type": "string"
            },
            {
              "internalType": "string",
              "name": "description",
              "type": "string"
            },
            {
              "internalType": "uint256",
              "name": "upvotes",
              "type": "uint256"
            },
            {
              "internalType": "uint256",
              "name": "downvotes",
              "type": "uint256"
            }
          ],
          "internalType": "struct MetamaskSnapsExplorer.RegisteredSnap",
          "name": "",
          "type": "tuple"
        }
      ],
      "stateMutability": "nonpayable",
      "type": "function"
    },
    {
      "inputs": [
        {
          "internalType": "uint256",
          "name": "id",
          "type": "uint256"
        }
      ],
      "name": "upvote",
      "outputs": [],
      "stateMutability": "nonpayable",
      "type": "function"
    },
    {
      "inputs": [
        {
          "internalType": "uint256",
          "name": "id",
          "type": "uint256"
        }
      ],
      "name": "downvote",
      "outputs": [],
      "stateMutability": "nonpayable",
      "type": "function"
    }
  ],
  "bytecode": "0x6080604052336000806101000a81548173ffffffffffffffffffffffffffffffffffffffff021916908373ffffffffffffffffffffffffffffffffffffffff1602179055506040518060800160405280600060ff168152602001600160ff168152602001600260ff168152602001600360ff168152506002906004620000879291906200009c565b503480156200009557600080fd5b5062000105565b8260048101928215620000d3579160200282015b82811115620000d2578251829060ff16905591602001919060010190620000b0565b5b509050620000e29190620000e6565b5090565b5b8082111562000101576000816000905550600101620000e7565b5090565b61178780620001156000396000f3fe608060405234801561001057600080fd5b506004361061007c5760003560e01c806342585b341161005b57806342585b34146100e9578063f31fdad414610119578063fd4f421414610135578063fe898c6c146101535761007c565b806272f2391461008157806301ddf070146100b1578063104ace02146100cd575b600080fd5b61009b60048036038101906100969190611024565b610171565b6040516100a89190611343565b60405180910390f35b6100cb60048036038101906100c69190611365565b6106c2565b005b6100e760048036038101906100e29190611392565b610700565b005b61010360048036038101906100fe9190611365565b6108b3565b6040516101109190611343565b60405180910390f35b610133600480360381019061012e9190611365565b610cd0565b005b61013d610d0e565b60405161014a9190611563565b60405180910390f35b61015b610d59565b604051610168919061158d565b60405180910390f35b610179610d66565b60006001898154811061018f5761018e6115a8565b5b90600052602060002090600a020190503373ffffffffffffffffffffffffffffffffffffffff168160010160009054906101000a900473ffffffffffffffffffffffffffffffffffffffff1673ffffffffffffffffffffffffffffffffffffffff1603610231576040517f08c379a00000000000000000000000000000000000000000000000000000000081526004016102289061165a565b60405180910390fd5b87816002019080519060200190610249929190610dcf565b5086816003019080519060200190610262929190610dcf565b508581600401908051906020019061027b929190610dcf565b5084816005019080519060200190610294929190610dcf565b50838160060190805190602001906102ad929190610dcf565b50828160070190805190602001906102c6929190610dcf565b508060405180610140016040529081600082015481526020016001820160009054906101000a900473ffffffffffffffffffffffffffffffffffffffff1673ffffffffffffffffffffffffffffffffffffffff1673ffffffffffffffffffffffffffffffffffffffff168152602001600282018054610344906116a9565b80601f0160208091040260200160405190810160405280929190818152602001828054610370906116a9565b80156103bd5780601f10610392576101008083540402835291602001916103bd565b820191906000526020600020905b8154815290600101906020018083116103a057829003601f168201915b505050505081526020016003820180546103d6906116a9565b80601f0160208091040260200160405190810160405280929190818152602001828054610402906116a9565b801561044f5780601f106104245761010080835404028352916020019161044f565b820191906000526020600020905b81548152906001019060200180831161043257829003601f168201915b50505050508152602001600482018054610468906116a9565b80601f0160208091040260200160405190810160405280929190818152602001828054610494906116a9565b80156104e15780601f106104b6576101008083540402835291602001916104e1565b820191906000526020600020905b8154815290600101906020018083116104c457829003601f168201915b505050505081526020016005820180546104fa906116a9565b80601f0160208091040260200160405190810160405280929190818152602001828054610526906116a9565b80156105735780601f1061054857610100808354040283529160200191610573565b820191906000526020600020905b81548152906001019060200180831161055657829003601f168201915b5050505050815260200160068201805461058c906116a9565b80601f01602080910402602001604051908101604052809291908181526020018280546105b8906116a9565b80156106055780601f106105da57610100808354040283529160200191610605565b820191906000526020600020905b8154815290600101906020018083116105e857829003601f168201915b5050505050815260200160078201805461061e906116a9565b80601f016020809104026020016040519081016040528092919081815260200182805461064a906116a9565b80156106975780601f1061066c57610100808354040283529160200191610697565b820191906000526020600020905b81548152906001019060200180831161067a57829003601f168201915b5050505050815260200160088201548152602001600982015481525050915050979650505050505050565b600181815481106106d6576106d56115a8565b5b90600052602060002090600a020160080160008154809291906106f890611709565b919050555050565b600060405180610140016040528060018054905081526020013373ffffffffffffffffffffffffffffffffffffffff168152602001888152602001878152602001868152602001858152602001848152602001838152602001600081526020016000815250905060018190806001815401808255809150506001900390600052602060002090600a02016000909190919091506000820151816000015560208201518160010160006101000a81548173ffffffffffffffffffffffffffffffffffffffff021916908373ffffffffffffffffffffffffffffffffffffffff1602179055506040820151816002019080519060200190610800929190610dcf565b50606082015181600301908051906020019061081d929190610dcf565b50608082015181600401908051906020019061083a929190610dcf565b5060a0820151816005019080519060200190610857929190610dcf565b5060c0820151816006019080519060200190610874929190610dcf565b5060e0820151816007019080519060200190610891929190610dcf565b5061010082015181600801556101208201518160090155505050505050505050565b6108bb610d66565b600182815481106108cf576108ce6115a8565b5b90600052602060002090600a020160405180610140016040529081600082015481526020016001820160009054906101000a900473ffffffffffffffffffffffffffffffffffffffff1673ffffffffffffffffffffffffffffffffffffffff1673ffffffffffffffffffffffffffffffffffffffff168152602001600282018054610959906116a9565b80601f0160208091040260200160405190810160405280929190818152602001828054610985906116a9565b80156109d25780601f106109a7576101008083540402835291602001916109d2565b820191906000526020600020905b8154815290600101906020018083116109b557829003601f168201915b505050505081526020016003820180546109eb906116a9565b80601f0160208091040260200160405190810160405280929190818152602001828054610a17906116a9565b8015610a645780601f10610a3957610100808354040283529160200191610a64565b820191906000526020600020905b815481529060010190602001808311610a4757829003601f168201915b50505050508152602001600482018054610a7d906116a9565b80601f0160208091040260200160405190810160405280929190818152602001828054610aa9906116a9565b8015610af65780601f10610acb57610100808354040283529160200191610af6565b820191906000526020600020905b815481529060010190602001808311610ad957829003601f168201915b50505050508152602001600582018054610b0f906116a9565b80601f0160208091040260200160405190810160405280929190818152602001828054610b3b906116a9565b8015610b885780601f10610b5d57610100808354040283529160200191610b88565b820191906000526020600020905b815481529060010190602001808311610b6b57829003601f168201915b50505050508152602001600682018054610ba1906116a9565b80601f0160208091040260200160405190810160405280929190818152602001828054610bcd906116a9565b8015610c1a5780601f10610bef57610100808354040283529160200191610c1a565b820191906000526020600020905b815481529060010190602001808311610bfd57829003601f168201915b50505050508152602001600782018054610c33906116a9565b80601f0160208091040260200160405190810160405280929190818152602001828054610c5f906116a9565b8015610cac5780601f10610c8157610100808354040283529160200191610cac565b820191906000526020600020905b815481529060010190602001808311610c8f57829003601f168201915b50505050508152602001600882015481526020016009820154815250509050919050565b60018181548110610ce457610ce36115a8565b5b90600052602060002090600a02016009016000815480929190610d0690611709565b919050555050565b610d16610e55565b6002600480602002604051908101604052809291908260048015610d4f576020028201915b815481526020019060010190808311610d3b575b5050505050905090565b6000600180549050905090565b60405180610140016040528060008152602001600073ffffffffffffffffffffffffffffffffffffffff16815260200160608152602001606081526020016060815260200160608152602001606081526020016060815260200160008152602001600081525090565b828054610ddb906116a9565b90600052602060002090601f016020900481019282610dfd5760008555610e44565b82601f10610e1657805160ff1916838001178555610e44565b82800160010185558215610e44579182015b82811115610e43578251825591602001919060010190610e28565b5b509050610e519190610e77565b5090565b6040518060800160405280600490602082028036833780820191505090505090565b5b80821115610e90576000816000905550600101610e78565b5090565b6000604051905090565b600080fd5b600080fd5b6000819050919050565b610ebb81610ea8565b8114610ec657600080fd5b50565b600081359050610ed881610eb2565b92915050565b600080fd5b600080fd5b6000601f19601f8301169050919050565b7f4e487b7100000000000000000000000000000000000000000000000000000000600052604160045260246000fd5b610f3182610ee8565b810181811067ffffffffffffffff82111715610f5057610f4f610ef9565b5b80604052505050565b6000610f63610e94565b9050610f6f8282610f28565b919050565b600067ffffffffffffffff821115610f8f57610f8e610ef9565b5b610f9882610ee8565b9050602081019050919050565b82818337600083830152505050565b6000610fc7610fc284610f74565b610f59565b905082815260208101848484011115610fe357610fe2610ee3565b5b610fee848285610fa5565b509392505050565b600082601f83011261100b5761100a610ede565b5b813561101b848260208601610fb4565b91505092915050565b600080600080600080600060e0888a03121561104357611042610e9e565b5b60006110518a828b01610ec9565b975050602088013567ffffffffffffffff81111561107257611071610ea3565b5b61107e8a828b01610ff6565b965050604088013567ffffffffffffffff81111561109f5761109e610ea3565b5b6110ab8a828b01610ff6565b955050606088013567ffffffffffffffff8111156110cc576110cb610ea3565b5b6110d88a828b01610ff6565b945050608088013567ffffffffffffffff8111156110f9576110f8610ea3565b5b6111058a828b01610ff6565b93505060a088013567ffffffffffffffff81111561112657611125610ea3565b5b6111328a828b01610ff6565b92505060c088013567ffffffffffffffff81111561115357611152610ea3565b5b61115f8a828b01610ff6565b91505092959891949750929550565b61117781610ea8565b82525050565b600073ffffffffffffffffffffffffffffffffffffffff82169050919050565b60006111a88261117d565b9050919050565b6111b88161119d565b82525050565b600081519050919050565b600082825260208201905092915050565b60005b838110156111f85780820151818401526020810190506111dd565b83811115611207576000848401525b50505050565b6000611218826111be565b61122281856111c9565b93506112328185602086016111da565b61123b81610ee8565b840191505092915050565b60006101408301600083015161125f600086018261116e565b50602083015161127260208601826111af565b506040830151848203604086015261128a828261120d565b915050606083015184820360608601526112a4828261120d565b915050608083015184820360808601526112be828261120d565b91505060a083015184820360a08601526112d8828261120d565b91505060c083015184820360c08601526112f2828261120d565b91505060e083015184820360e086015261130c828261120d565b91505061010083015161132361010086018261116e565b5061012083015161133861012086018261116e565b508091505092915050565b6000602082019050818103600083015261135d8184611246565b905092915050565b60006020828403121561137b5761137a610e9e565b5b600061138984828501610ec9565b91505092915050565b60008060008060008060c087890312156113af576113ae610e9e565b5b600087013567ffffffffffffffff8111156113cd576113cc610ea3565b5b6113d989828a01610ff6565b965050602087013567ffffffffffffffff8111156113fa576113f9610ea3565b5b61140689828a01610ff6565b955050604087013567ffffffffffffffff81111561142757611426610ea3565b5b61143389828a01610ff6565b945050606087013567ffffffffffffffff81111561145457611453610ea3565b5b61146089828a01610ff6565b935050608087013567ffffffffffffffff81111561148157611480610ea3565b5b61148d89828a01610ff6565b92505060a087013567ffffffffffffffff8111156114ae576114ad610ea3565b5b6114ba89828a01610ff6565b9150509295509295509295565b600060049050919050565b600081905092915050565b6000819050919050565b60006114f3838361116e565b60208301905092915050565b6000602082019050919050565b611515816114c7565b61151f81846114d2565b925061152a826114dd565b8060005b8381101561155b57815161154287826114e7565b965061154d836114ff565b92505060018101905061152e565b505050505050565b6000608082019050611578600083018461150c565b92915050565b61158781610ea8565b82525050565b60006020820190506115a2600083018461157e565b92915050565b7f4e487b7100000000000000000000000000000000000000000000000000000000600052603260045260246000fd5b600082825260208201905092915050565b7f596f7520617265206e6f7420616c6c6f77656420746f2065646974207468697360008201527f20536e6170000000000000000000000000000000000000000000000000000000602082015250565b60006116446025836115d7565b915061164f826115e8565b604082019050919050565b6000602082019050818103600083015261167381611637565b9050919050565b7f4e487b7100000000000000000000000000000000000000000000000000000000600052602260045260246000fd5b600060028204905060018216806116c157607f821691505b6020821081036116d4576116d361167a565b5b50919050565b7f4e487b7100000000000000000000000000000000000000000000000000000000600052601160045260246000fd5b600061171482610ea8565b91507fffffffffffffffffffffffffffffffffffffffffffffffffffffffffffffffff8203611746576117456116da565b5b60018201905091905056fea2646970667358221220810ead017b2c2963cf83b11162ae17dcef647d35d113d57517b4c708f8729c6864736f6c634300080d0033",
  "immutableReferences": {},
  "source": "// SPDX-License-Identifier: GPL-3.0\npragma solidity 0.8.13;\n\ncontract MetamaskSnapsExplorer {\n    struct RegisteredSnap {\n        uint id;\n        address creator;\n        string name;\n        string category;\n        string installation;\n        string iconUrl;\n        string dapp;\n        string description;\n        uint upvotes;\n        uint downvotes;\n    }\n\n    address private owner = msg.sender;\n    RegisteredSnap[] _snaps;\n    uint[4] private featuredSnaps = [0, 1, 2, 3];\n\n    function getNumberOfSnaps() public view returns (uint) {\n        return _snaps.length;\n    }\n\n    function getSnap(uint id) public view returns (RegisteredSnap memory) {\n        return _snaps[id];\n    }\n\n    function getFeaturedSnaps() public view returns (uint[4] memory) {\n        return featuredSnaps;\n    }\n\n    function register(\n        string memory name,\n        string memory category,\n        string memory installation,\n        string memory iconUrl,\n        string memory dapp,\n        string memory description\n    ) public {\n        RegisteredSnap memory newSnap = RegisteredSnap(\n            _snaps.length,\n            msg.sender,\n            name,\n            category,\n            installation,\n            iconUrl,\n            dapp,\n            description,\n            0,\n            0\n        );\n\n        _snaps.push(newSnap);\n    }\n\n    function edit(\n        uint id,\n        string memory name,\n        string memory category,\n        string memory installation,\n        string memory iconUrl,\n        string memory dapp,\n        string memory description\n    ) public returns (RegisteredSnap memory) {\n        RegisteredSnap storage _snap = _snaps[id];\n        require(_snap.creator != msg.sender, \"You are not allowed to edit this Snap\");\n    \n        _snap.name = name;\n        _snap.category = category;\n        _snap.installation = installation;\n        _snap.iconUrl = iconUrl;\n        _snap.dapp = dapp;\n        _snap.description = description;\n\n        return _snap;\n    }\n\n    function upvote(uint id) public {\n        _snaps[id].upvotes++;\n    }\n\n    function downvote(uint id) public {\n        _snaps[id].downvotes++;\n    }\n}\n",
  "sourcePath": "/Users/fermincarranza/consensys/hackathon/contracts/MetamaskSnapsExplorer.sol",
  "compiler": {
    "name": "solc",
    "version": "0.8.13+commit.abaa5c0e.Emscripten.clang"
  },
  "schemaVersion": "3.4.7",
  "updatedAt": "2022-05-15T00:55:42.267Z",
  "devdoc": {
    "kind": "dev",
    "methods": {},
    "version": 1
  },
  "userdoc": {
    "kind": "user",
    "methods": {},
    "version": 1
  }
}